{
  "contractName": "Student",
  "abi": [
    {
      "anonymous": false,
      "inputs": [
        {
          "indexed": true,
          "internalType": "address",
          "name": "f",
          "type": "address"
        },
        {
          "indexed": false,
          "internalType": "string",
          "name": "firstName",
          "type": "string"
        },
        {
          "indexed": false,
          "internalType": "string",
          "name": "lastName",
          "type": "string"
        },
        {
          "indexed": false,
          "internalType": "string",
          "name": "dateOfBirth",
          "type": "string"
        }
      ],
      "name": "Added",
      "type": "event"
    },
    {
      "inputs": [
        {
          "internalType": "string",
          "name": "_firstName",
          "type": "string"
        },
        {
          "internalType": "string",
          "name": "_lastName",
          "type": "string"
        },
        {
          "internalType": "string",
          "name": "_dateOfBirth",
          "type": "string"
        }
      ],
      "name": "setStudent",
      "outputs": [],
      "stateMutability": "nonpayable",
      "type": "function"
    },
    {
      "inputs": [],
      "name": "getStudent",
      "outputs": [
        {
          "internalType": "string",
          "name": "",
          "type": "string"
        },
        {
          "internalType": "string",
          "name": "",
          "type": "string"
        },
        {
          "internalType": "string",
          "name": "",
          "type": "string"
        }
      ],
      "stateMutability": "view",
      "type": "function",
      "constant": true
    }
  ],
  "bytecode": "0x608060405234801561001057600080fd5b506106db806100206000396000f3fe608060405234801561001057600080fd5b50600436106100365760003560e01c806378cfaff21461003b578063b439548d14610057575b600080fd5b610055600480360381019061005091906104ca565b610077565b005b61005f610113565b60405161006e939291906105f9565b60405180910390f35b826000908051906020019061008d9291906102cd565b5081600190805190602001906100a49291906102cd565b5080600290805190602001906100bb9291906102cd565b503373ffffffffffffffffffffffffffffffffffffffff167f034f63626985be1c05d4cacbc0816a9d7ddfae322fde35c3f39b2c5f440ef645848484604051610106939291906105f9565b60405180910390a2505050565b606080606060006001600282805461012a90610674565b80601f016020809104026020016040519081016040528092919081815260200182805461015690610674565b80156101a35780601f10610178576101008083540402835291602001916101a3565b820191906000526020600020905b81548152906001019060200180831161018657829003601f168201915b505050505092508180546101b690610674565b80601f01602080910402602001604051908101604052809291908181526020018280546101e290610674565b801561022f5780601f106102045761010080835404028352916020019161022f565b820191906000526020600020905b81548152906001019060200180831161021257829003601f168201915b5050505050915080805461024290610674565b80601f016020809104026020016040519081016040528092919081815260200182805461026e90610674565b80156102bb5780601f10610290576101008083540402835291602001916102bb565b820191906000526020600020905b81548152906001019060200180831161029e57829003601f168201915b50505050509050925092509250909192565b8280546102d990610674565b90600052602060002090601f0160209004810192826102fb5760008555610342565b82601f1061031457805160ff1916838001178555610342565b82800160010185558215610342579182015b82811115610341578251825591602001919060010190610326565b5b50905061034f9190610353565b5090565b5b8082111561036c576000816000905550600101610354565b5090565b6000604051905090565b600080fd5b600080fd5b600080fd5b600080fd5b6000601f19601f8301169050919050565b7f4e487b7100000000000000000000000000000000000000000000000000000000600052604160045260246000fd5b6103d78261038e565b810181811067ffffffffffffffff821117156103f6576103f561039f565b5b80604052505050565b6000610409610370565b905061041582826103ce565b919050565b600067ffffffffffffffff8211156104355761043461039f565b5b61043e8261038e565b9050602081019050919050565b82818337600083830152505050565b600061046d6104688461041a565b6103ff565b90508281526020810184848401111561048957610488610389565b5b61049484828561044b565b509392505050565b600082601f8301126104b1576104b0610384565b5b81356104c184826020860161045a565b91505092915050565b6000806000606084860312156104e3576104e261037a565b5b600084013567ffffffffffffffff8111156105015761050061037f565b5b61050d8682870161049c565b935050602084013567ffffffffffffffff81111561052e5761052d61037f565b5b61053a8682870161049c565b925050604084013567ffffffffffffffff81111561055b5761055a61037f565b5b6105678682870161049c565b9150509250925092565b600081519050919050565b600082825260208201905092915050565b60005b838110156105ab578082015181840152602081019050610590565b838111156105ba576000848401525b50505050565b60006105cb82610571565b6105d5818561057c565b93506105e581856020860161058d565b6105ee8161038e565b840191505092915050565b6000606082019050818103600083015261061381866105c0565b9050818103602083015261062781856105c0565b9050818103604083015261063b81846105c0565b9050949350505050565b7f4e487b7100000000000000000000000000000000000000000000000000000000600052602260045260246000fd5b6000600282049050600182168061068c57607f821691505b60208210810361069f5761069e610645565b5b5091905056fea26469706673582212201f1a74db2c5041876b580c8a31f81912833face2cbb70cba100c293175d3fd9e64736f6c634300080d0033",
  "immutableReferences": {},
  "source": "pragma solidity ^0.8.13;\r\n\r\ncontract Student {\r\n    string firstName;\r\n    string lastName;\r\n    string dateOfBirth;\r\n\r\n    // memory:     , storage default. storage    \r\n    function setStudent(\r\n        string memory _firstName,\r\n        string memory _lastName,\r\n        string memory _dateOfBirth\r\n    ) public {\r\n        firstName = _firstName;\r\n        lastName = _lastName;\r\n        dateOfBirth = _dateOfBirth;\r\n        emit Added(msg.sender, _firstName, _lastName, _dateOfBirth);\r\n    }\r\n\r\n    function getStudent()\r\n        public\r\n        view\r\n        returns (\r\n            string memory,\r\n            string memory,\r\n            string memory\r\n        )\r\n    {\r\n        return (firstName, lastName, dateOfBirth);\r\n    }\r\n\r\n    // event memory keyword .\r\n    event Added(\r\n        address indexed f,\r\n        string firstName,\r\n        string lastName,\r\n        string dateOfBirth\r\n    );\r\n}\r\n",
  "sourcePath": "C:\\Users\\park\\Desktop\\project\\researches\\   \\8.4-truffle\\contracts\\student.sol",
  "compiler": {
    "name": "solc",
    "version": "0.8.13+commit.abaa5c0e.Emscripten.clang"
  },
  "schemaVersion": "3.4.10",
  "updatedAt": "2022-11-13T11:51:18.803Z",
  "networkType": "ethereum",
  "devdoc": {
    "kind": "dev",
    "methods": {},
    "version": 1
  },
  "userdoc": {
    "kind": "user",
    "methods": {},
    "version": 1
  }
}